{
  "contractName": "CertificateVerification",
  "abi": [
    {
      "inputs": [],
      "stateMutability": "nonpayable",
      "type": "constructor"
    },
    {
      "anonymous": false,
      "inputs": [
        {
          "indexed": false,
          "internalType": "uint256",
          "name": "id",
          "type": "uint256"
        },
        {
          "indexed": false,
          "internalType": "string",
          "name": "ipfsHash",
          "type": "string"
        }
      ],
      "name": "CertificateAdded",
      "type": "event"
    },
    {
      "inputs": [],
      "name": "admin",
      "outputs": [
        {
          "internalType": "address",
          "name": "",
          "type": "address"
        }
      ],
      "stateMutability": "view",
      "type": "function",
      "constant": true
    },
    {
      "inputs": [],
      "name": "certificateCount",
      "outputs": [
        {
          "internalType": "uint256",
          "name": "",
          "type": "uint256"
        }
      ],
      "stateMutability": "view",
      "type": "function",
      "constant": true
    },
    {
      "inputs": [
        {
          "internalType": "uint256",
          "name": "",
          "type": "uint256"
        }
      ],
      "name": "certificates",
      "outputs": [
        {
          "internalType": "uint256",
          "name": "id",
          "type": "uint256"
        },
        {
          "internalType": "string",
          "name": "studentName",
          "type": "string"
        },
        {
          "internalType": "string",
          "name": "courseName",
          "type": "string"
        },
        {
          "internalType": "uint256",
          "name": "issueDate",
          "type": "uint256"
        },
        {
          "internalType": "string",
          "name": "ipfsHash",
          "type": "string"
        }
      ],
      "stateMutability": "view",
      "type": "function",
      "constant": true
    },
    {
      "inputs": [
        {
          "internalType": "string",
          "name": "",
          "type": "string"
        }
      ],
      "name": "hashExists",
      "outputs": [
        {
          "internalType": "bool",
          "name": "",
          "type": "bool"
        }
      ],
      "stateMutability": "view",
      "type": "function",
      "constant": true
    },
    {
      "inputs": [
        {
          "internalType": "string",
          "name": "_studentName",
          "type": "string"
        },
        {
          "internalType": "string",
          "name": "_courseName",
          "type": "string"
        },
        {
          "internalType": "string",
          "name": "_ipfsHash",
          "type": "string"
        }
      ],
      "name": "addCertificate",
      "outputs": [],
      "stateMutability": "nonpayable",
      "type": "function"
    }
  ],
  "bytecode": "0x6080604052600060015534801561001557600080fd5b50600080546001600160a01b0319163317905561089a806100376000396000f3fe608060405234801561001057600080fd5b50600436106100575760003560e01c806352d7b89c1461005c578063663b3e221461007a5780639871e5101461009e578063ac9e5760146100be578063f851a440146100d3575b600080fd5b6100646100e8565b6040516100719190610749565b60405180910390f35b61008d610088366004610651565b6100ee565b60405161007195949392919061076b565b6100b16100ac366004610592565b6102b5565b60405161007191906106c5565b6100d16100cc3660046105cd565b6102d5565b005b6100db610469565b60405161007191906106b1565b60015481565b60026020526000908152604090208054600182018054919291610110906107ec565b80601f016020809104026020016040519081016040528092919081815260200182805461013c906107ec565b80156101895780601f1061015e57610100808354040283529160200191610189565b820191906000526020600020905b81548152906001019060200180831161016c57829003601f168201915b50505050509080600201805461019e906107ec565b80601f01602080910402602001604051908101604052809291908181526020018280546101ca906107ec565b80156102175780601f106101ec57610100808354040283529160200191610217565b820191906000526020600020905b8154815290600101906020018083116101fa57829003601f168201915b505050505090806003015490806004018054610232906107ec565b80601f016020809104026020016040519081016040528092919081815260200182805461025e906107ec565b80156102ab5780601f10610280576101008083540402835291602001916102ab565b820191906000526020600020905b81548152906001019060200180831161028e57829003601f168201915b5050505050905085565b805160208183018101805160038252928201919093012091525460ff1681565b6000546001600160a01b031633146103085760405162461bcd60e51b81526004016102ff906106d0565b60405180910390fd5b6003816040516103189190610695565b9081526040519081900360200190205460ff16156103485760405162461bcd60e51b81526004016102ff90610712565b6001805490600061035883610827565b90915550506040805160a081018252600180548083526020808401888152848601889052426060860152608085018790526000928352600282529490912083518155935180519394936103b2938501929190910190610478565b50604082015180516103ce916002840191602090910190610478565b5060608201516003820155608082015180516103f4916004840191602090910190610478565b50905050600160038260405161040a9190610695565b908152604051908190036020018120805492151560ff19909316929092179091556001547fb3f7a51d97edfec0a93ec31952a01e523033a70f92f1cfae631a92c02f5306d09161045c91908490610752565b60405180910390a1505050565b6000546001600160a01b031681565b828054610484906107ec565b90600052602060002090601f0160209004810192826104a657600085556104ec565b82601f106104bf57805160ff19168380011785556104ec565b828001600101855582156104ec579182015b828111156104ec5782518255916020019190600101906104d1565b506104f89291506104fc565b5090565b5b808211156104f857600081556001016104fd565b600082601f830112610521578081fd5b813567ffffffffffffffff8082111561053c5761053c61084e565b604051601f8301601f1916810160200182811182821017156105605761056061084e565b604052828152848301602001861015610577578384fd5b82602086016020830137918201602001929092529392505050565b6000602082840312156105a3578081fd5b813567ffffffffffffffff8111156105b9578182fd5b6105c584828501610511565b949350505050565b6000806000606084860312156105e1578182fd5b833567ffffffffffffffff808211156105f8578384fd5b61060487838801610511565b94506020860135915080821115610619578384fd5b61062587838801610511565b9350604086013591508082111561063a578283fd5b5061064786828701610511565b9150509250925092565b600060208284031215610662578081fd5b5035919050565b600081518084526106818160208601602086016107bc565b601f01601f19169290920160200192915050565b600082516106a78184602087016107bc565b9190910192915050565b6001600160a01b0391909116815260200190565b901515815260200190565b60208082526022908201527f4f6e6c792061646d696e2063616e20706572666f726d2074686973206163746960408201526137b760f11b606082015260800190565b6020808252601a908201527f436572746966696361746520616c726561647920657869737473000000000000604082015260600190565b90815260200190565b6000838252604060208301526105c56040830184610669565b600086825260a0602083015261078460a0830187610669565b82810360408401526107968187610669565b905084606084015282810360808401526107b08185610669565b98975050505050505050565b60005b838110156107d75781810151838201526020016107bf565b838111156107e6576000848401525b50505050565b60028104600182168061080057607f821691505b6020821081141561082157634e487b7160e01b600052602260045260246000fd5b50919050565b600060001982141561084757634e487b7160e01b81526011600452602481fd5b5060010190565b634e487b7160e01b600052604160045260246000fdfea264697066735822122043037effc8a0f0c60fd608537ee388e940981220561f6299f24c775897961b2664736f6c63430008000033",
  "immutableReferences": {},
  "source": "// SPDX-License-Identifier: MIT\r\npragma solidity ^0.8.0;\r\n\r\ncontract CertificateVerification {\r\n    address public admin;\r\n    uint256 public certificateCount = 0;\r\n    \r\n    struct Certificate {\r\n        uint256 id;\r\n        string studentName;\r\n        string courseName;\r\n        uint256 issueDate;\r\n        string ipfsHash;\r\n    }\r\n\r\n    mapping(uint256 => Certificate) public certificates;\r\n    mapping(string => bool) public hashExists;\r\n\r\n    event CertificateAdded(uint256 id, string ipfsHash);\r\n\r\n    constructor() {\r\n        admin = msg.sender;\r\n    }\r\n\r\n    modifier onlyAdmin() {\r\n        require(msg.sender == admin, \"Only admin can perform this action\");\r\n        _;\r\n    }\r\n\r\n    function addCertificate(\r\n        string memory _studentName,\r\n        string memory _courseName,\r\n        string memory _ipfsHash\r\n    ) external onlyAdmin {\r\n        require(!hashExists[_ipfsHash], \"Certificate already exists\");\r\n        certificateCount++;\r\n        certificates[certificateCount] = Certificate(\r\n            certificateCount,\r\n            _studentName,\r\n            _courseName,\r\n            block.timestamp,\r\n            _ipfsHash\r\n        );\r\n        hashExists[_ipfsHash] = true;\r\n        emit CertificateAdded(certificateCount, _ipfsHash);\r\n    }\r\n}",
  "sourcePath": "C:\\Users\\Mokshith Balidi\\Downloads\\certificate-system\\blockchain\\contracts\\Certificate.sol",
  "compiler": {
    "name": "solc",
    "version": "0.8.0+commit.c7dfd78e.Emscripten.clang"
  },
  "schemaVersion": "3.4.16",
  "updatedAt": "2025-03-31T16:41:40.321Z",
  "networkType": "ethereum",
  "devdoc": {
    "kind": "dev",
    "methods": {},
    "version": 1
  },
  "userdoc": {
    "kind": "user",
    "methods": {},
    "version": 1
  }
}